{
  "contractName": "preComputeAddress",
  "abi": [
    {
      "anonymous": false,
      "inputs": [
        {
          "indexed": true,
          "internalType": "address",
          "name": "preComputedAddress",
          "type": "address"
        }
      ],
      "name": "Deployed",
      "type": "event"
    },
    {
      "inputs": [],
      "name": "getBytecode",
      "outputs": [
        {
          "internalType": "bytes",
          "name": "",
          "type": "bytes"
        }
      ],
      "stateMutability": "pure",
      "type": "function",
      "constant": true
    },
    {
      "inputs": [
        {
          "internalType": "bytes",
          "name": "_byteCode",
          "type": "bytes"
        },
        {
          "internalType": "uint256",
          "name": "_salt",
          "type": "uint256"
        }
      ],
      "name": "computeAddress",
      "outputs": [
        {
          "internalType": "address",
          "name": "",
          "type": "address"
        }
      ],
      "stateMutability": "view",
      "type": "function",
      "constant": true
    },
    {
      "inputs": [
        {
          "internalType": "bytes",
          "name": "_byteCode",
          "type": "bytes"
        },
        {
          "internalType": "uint256",
          "name": "_salt",
          "type": "uint256"
        }
      ],
      "name": "deploy",
      "outputs": [],
      "stateMutability": "payable",
      "type": "function",
      "payable": true
    }
  ],
  "bytecode": "0x608060405234801561001057600080fd5b50610714806100206000396000f3fe6080604052600436106100345760003560e01c806352c7420d1461003957806381176c20146100645780639c4ae2d0146100a1575b600080fd5b34801561004557600080fd5b5061004e6100bd565b60405161005b9190610238565b60405180910390f35b34801561007057600080fd5b5061008b600480360381019061008691906103d9565b6100e8565b6040516100989190610476565b60405180910390f35b6100bb60048036038101906100b691906103d9565b610132565b005b6060604051806020016100cf90610192565b6020820181038252601f19601f82011660405250905090565b60008060ff60f81b3084868051906020012060405160200161010d9493929190610572565b6040516020818303038152906040528051906020012090508060001c91505092915050565b60008183516020850134f59050803b61014a57600080fd5b8073ffffffffffffffffffffffffffffffffffffffff167ff40fcec21964ffb566044d083b4073f29f7f7929110ea19e1b3ebe375d89055e60405160405180910390a2505050565b61011e806105c183390190565b600081519050919050565b600082825260208201905092915050565b60005b838110156101d95780820151818401526020810190506101be565b838111156101e8576000848401525b50505050565b6000601f19601f8301169050919050565b600061020a8261019f565b61021481856101aa565b93506102248185602086016101bb565b61022d816101ee565b840191505092915050565b6000602082019050818103600083015261025281846101ff565b905092915050565b6000604051905090565b600080fd5b600080fd5b600080fd5b600080fd5b7f4e487b7100000000000000000000000000000000000000000000000000000000600052604160045260246000fd5b6102b0826101ee565b810181811067ffffffffffffffff821117156102cf576102ce610278565b5b80604052505050565b60006102e261025a565b90506102ee82826102a7565b919050565b600067ffffffffffffffff82111561030e5761030d610278565b5b610317826101ee565b9050602081019050919050565b82818337600083830152505050565b6000610346610341846102f3565b6102d8565b90508281526020810184848401111561036257610361610273565b5b61036d848285610324565b509392505050565b600082601f83011261038a5761038961026e565b5b813561039a848260208601610333565b91505092915050565b6000819050919050565b6103b6816103a3565b81146103c157600080fd5b50565b6000813590506103d3816103ad565b92915050565b600080604083850312156103f0576103ef610264565b5b600083013567ffffffffffffffff81111561040e5761040d610269565b5b61041a85828601610375565b925050602061042b858286016103c4565b9150509250929050565b600073ffffffffffffffffffffffffffffffffffffffff82169050919050565b600061046082610435565b9050919050565b61047081610455565b82525050565b600060208201905061048b6000830184610467565b92915050565b60007fff0000000000000000000000000000000000000000000000000000000000000082169050919050565b6000819050919050565b6104d86104d382610491565b6104bd565b82525050565b60008160601b9050919050565b60006104f6826104de565b9050919050565b6000610508826104eb565b9050919050565b61052061051b82610455565b6104fd565b82525050565b6000819050919050565b61054161053c826103a3565b610526565b82525050565b6000819050919050565b6000819050919050565b61056c61056782610547565b610551565b82525050565b600061057e82876104c7565b60018201915061058e828661050f565b60148201915061059e8285610530565b6020820191506105ae828461055b565b6020820191508190509594505050505056fe608060405234801561001057600080fd5b5060ff8061001f6000396000f3fe6080604052348015600f57600080fd5b506004361060285760003560e01c8063d09de08a14602d575b600080fd5b60336035565b005b6000808154809291906045906085565b9190505550565b7f4e487b7100000000000000000000000000000000000000000000000000000000600052601160045260246000fd5b6000819050919050565b6000608e82607b565b91507fffffffffffffffffffffffffffffffffffffffffffffffffffffffffffffffff82141560be5760bd604c565b5b60018201905091905056fea2646970667358221220eddd7dfcb25bddf9cfbb26016a388f95d2ef6718bec5d93688ae1d4d5a09983f64736f6c634300080b0033a2646970667358221220f4d6dc6589f177dee0e819a90e4f04650f1a17c1373681a545bb27d019b39e2a64736f6c634300080b0033",
  "immutableReferences": {},
  "source": "//SPDX-License-Identifier: MIT\npragma solidity ^0.8.11;\n\ncontract preComputeAddress{\n    event Deployed(address indexed preComputedAddress);\n\n    // we need bytecode of the contract to be deployed along with the constructor parameters\n    function getBytecode() public pure returns (bytes memory){\n        return type(TestContract).creationCode;\n    }\n\n    //compute the deployment address\n    function computeAddress(bytes memory _byteCode, uint256 _salt)public view returns (address ){\n        bytes32 hash_ = keccak256(abi.encodePacked(bytes1(0xff),address(this),_salt,keccak256(_byteCode)));\n        return address(uint160(uint256(hash_)));\n    }\n\n    //deploy the contract and check the event for the deployed address\n    function deploy(bytes memory _byteCode, uint256 _salt)public payable{\n        address depAddr;\n\n        assembly{\n            depAddr:= create2(callvalue(),add(_byteCode,0x20), mload(_byteCode), _salt)\n        \n        if iszero(extcodesize(depAddr)){\n            revert(0,0)\n        }\n\n        }\n        emit Deployed(depAddr);\n    }\n\n}\n\ncontract TestContract{\n    uint256 storedNumber;\n\n    function increment() public {\n        storedNumber++;\n    }\n}",
  "sourcePath": "/home/falcon46/Documents/projects/preComputeDeploymentAddress/contracts/preComputeAddress.sol",
  "compiler": {
    "name": "solc",
    "version": "0.8.11+commit.d7f03943.Emscripten.clang"
  },
  "schemaVersion": "3.4.4",
  "updatedAt": "2022-03-01T06:33:01.064Z",
  "networkType": "ethereum",
  "devdoc": {
    "kind": "dev",
    "methods": {},
    "version": 1
  },
  "userdoc": {
    "kind": "user",
    "methods": {},
    "version": 1
  }
}