{
  "contractName": "TestContract",
  "abi": [
    {
      "inputs": [],
      "name": "increment",
      "outputs": [],
      "stateMutability": "nonpayable",
      "type": "function"
    }
  ],
  "bytecode": "0x608060405234801561001057600080fd5b5060ff8061001f6000396000f3fe6080604052348015600f57600080fd5b506004361060285760003560e01c8063d09de08a14602d575b600080fd5b60336035565b005b6000808154809291906045906085565b9190505550565b7f4e487b7100000000000000000000000000000000000000000000000000000000600052601160045260246000fd5b6000819050919050565b6000608e82607b565b91507fffffffffffffffffffffffffffffffffffffffffffffffffffffffffffffffff82141560be5760bd604c565b5b60018201905091905056fea2646970667358221220eddd7dfcb25bddf9cfbb26016a388f95d2ef6718bec5d93688ae1d4d5a09983f64736f6c634300080b0033",
  "immutableReferences": {},
  "source": "//SPDX-License-Identifier: MIT\npragma solidity ^0.8.11;\n\ncontract preComputeAddress{\n    event Deployed(address indexed preComputedAddress);\n\n    // we need bytecode of the contract to be deployed along with the constructor parameters\n    function getBytecode() public pure returns (bytes memory){\n        return type(TestContract).creationCode;\n    }\n\n    //compute the deployment address\n    function computeAddress(bytes memory _byteCode, uint256 _salt)public view returns (address ){\n        bytes32 hash_ = keccak256(abi.encodePacked(bytes1(0xff),address(this),_salt,keccak256(_byteCode)));\n        return address(uint160(uint256(hash_)));\n    }\n\n    //deploy the contract and check the event for the deployed address\n    function deploy(bytes memory _byteCode, uint256 _salt)public payable{\n        address depAddr;\n\n        assembly{\n            depAddr:= create2(callvalue(),add(_byteCode,0x20), mload(_byteCode), _salt)\n        \n        if iszero(extcodesize(depAddr)){\n            revert(0,0)\n        }\n\n        }\n        emit Deployed(depAddr);\n    }\n\n}\n\ncontract TestContract{\n    uint256 storedNumber;\n\n    function increment() public {\n        storedNumber++;\n    }\n}",
  "sourcePath": "/home/falcon46/Documents/projects/preComputeDeploymentAddress/contracts/preComputeAddress.sol",
  "compiler": {
    "name": "solc",
    "version": "0.8.11+commit.d7f03943.Emscripten.clang"
  },
  "schemaVersion": "3.4.4",
  "updatedAt": "2022-03-01T06:32:39.757Z",
  "devdoc": {
    "kind": "dev",
    "methods": {},
    "version": 1
  },
  "userdoc": {
    "kind": "user",
    "methods": {},
    "version": 1
  }
}